:1000000019C033C032C031C030C02FC02EC02DC087
:100010002CC02BC02AC029C028C027C026C025C09C
:1000200024C023C022C07FC220C01FC01EC01DC06C
:100030001CC01BC011241FBECFEFCDBFDFE3DEBF4E
:100040001EE3A0E0BEE3EBEAF7E002C005900D92EC
:10005000A030B107D9F72EE3A0E0BEE301C01D92A6
:10006000AA3EB207E1F7BDD199C3CACF0FD3089515
:100070001BD38093DD3E22D3089510920E3E109242
:100080000D3E10920F3E86E4E7E9FEE3DF01982F74
:100090001D929A95E9F7E1E5FEE3DF011D928A954D
:1000A000E9F710920C3E0895AC0130E080E014C0F6
:1000B000FA01E30FF11D9081892720E00AC088230F
:1000C00034F490E0880F991F97E0892701C0880FCA
:1000D0002F5F2830A0F33F5F361750F3089590E06C
:1000E000889600249695879507949695879507940A
:1000F000982F802D28D30895CF938091063E8F3F6F
:1001000009F51CC08C2F90E0889600249695879561
:100110000794969587950794982F802D14D39091E6
:10012000003E911104C0882321F081E003C081E0EA
:1001300001C080E08093003ECF5F01C0C0E0C835C1
:1001400008F305C08091063ECADF8093003E80918F
:10015000003ECF910895CF93C82F20E00BC0822F8F
:1001600090E0FC01E456F14C3081FC01EF5EF14C73
:1001700030832F5F283598F36091983E6F5F87E951
:100180009EE392DF9091053E891721F081E08093F4
:10019000103E02C01092103E8091103E81110FC09F
:1001A0008C2F90E0889661E17EE3002496958795F8
:1001B0000794969587950794982F802DD4D280E048
:1001C000CF9108950F931F93CF93DF93D82F81E49E
:1001D0008093513EC0E019C02C2F30E089010F5FA1
:1001E0001F4F8D2F90E08896002496958795079451
:1001F000969587950794982F802D820F931F9FD2F5
:10020000F801EF5AF14C8083CF5FC03428F3E1E569
:10021000FEE3C081D0E06081CF0146DFCF5AD14CF0
:10022000888380E0DF91CF911F910F91089581EF36
:100230009FE185D28093043E82EF9FE180D280933C
:10024000033E83EF9FE17BD28093023E0895CF93DC
:10025000DF9380910B3E813009F081C08091013E97
:1002600081114AC08091083E8230D1F018F481306B
:1002700031F075C0843009F1803891F170C0C1E56A
:10028000DEE38BE08883E0EAF7E8A2E5BEE30190D5
:100290000D928A95E1F76881CE0106DF8B875FC0FA
:1002A000C1E5DEE384E0888389E089838A831B8259
:1002B0006881CE01F9DE8C8352C0B9DFC1E5DEE38F
:1002C00084E088838091043E89838091033E8A8301
:1002D0008091023E8B836881CE01E6DE8C833FC035
:1002E000C1E5DEE382E088838091013E89836881F5
:1002F000CE01DADE8A8333C08091083E823001F17C
:1003000018F4813089F02BC0803431F1803839F510
:10031000C1E5DEE382E088838091013E89836881C4
:10032000CE01C2DE8A831BC0C1E5DEE382E08883A2
:100330008091003E89836881CE01B6DE8A830FC03A
:10034000C1E5DEE382E088838091103E8983688185
:10035000CE01AADE8A8303C08091063E33DFDF919F
:10036000CF91089580910C3E811104C081E080936B
:100370000C3E6DDF80910D3E863438F5E0910D3EE8
:10038000F0E0EF5AF14C808192D180910D3E8111C5
:1003900008C0E0910D3EF0E0EF5AF14C808180936F
:1003A000093E8091093E882351F09091093E809149
:1003B0000D3E981720F410920C3E84D108957ED102
:1003C00080910D3E8F5F80930D3E089583E292E011
:1003D00082D182EB91E07AD188E390E081D181E013
:1003E000089544DEF3DF7894FFCFCF93DF93EC01E1
:1003F00055D1F894FE010995DF91CF910895809130
:100400000B3E81111FC08091083E883099F028F47E
:10041000813041F0843051F00895803171F08032A4
:1004200071F0089580E095E0E0DF089581E0809329
:10043000013E08951092013E08955EDE0895809178
:10044000063E89DE0895CF93DF9380910E3E863479
:1004500008F066C0C0910E3ED0E026D1C956D14CFE
:10046000888380910E3E811109C0E0910E3EF0E03C
:10047000E956F14C808180930B3E33C080910E3E53
:10048000813049F4E0910E3EF0E0E956F14C808174
:1004900080930A3E26C080910E3E823049F4E0915E
:1004A0000E3EF0E0E956F14C80818093083E19C081
:1004B00080910E3E833049F4E0910E3EF0E0E95623
:1004C000F14C80818093073E0CC080910E3E8430B9
:1004D00041F4E0910E3EF0E0E956F14C80818093CA
:1004E000063E80910A3E8823A9F090910A3E8091B1
:1004F0000E3E981778F4E0910E3EF0E0E956F14C8C
:1005000080818093053E80910B3E811101C077DF91
:10051000D9D006C0D3D080910E3E8F5F80930E3E1F
:10052000DF91CF9108951F920F920FB60F92112471
:100530002F933F934F935F936F937F938F939F93EB
:10054000AF93BF93EF93FF9380911B0886FF06C084
:1005500080911B0880FF02C08BDD22C080911B08A8
:1005600086FF0EC080911B0880FF04C080911B088D
:1005700081FF69DFE0E1F8E08385806483877DDDCA
:1005800080911B08882364F480911B0881FF02C0BE
:10059000E9DE01C058DFEBE1F8E08081806880830C
:1005A000FF91EF91BF91AF919F918F917F916F914B
:1005B0005F914F913F912F910F900FBE0F901F9021
:1005C000189580E0089580E0089540E468ED80E1AA
:1005D00091E0DED080E0089580E008C0E82FF0E0F0
:1005E000E05FFB4F9081986090838F5F8830B0F31D
:1005F00080E008C0E82FF0E0E05DFB4F908198605C
:1006000090838F5F8830B0F380E008C0E82FF0E07F
:10061000E05BFB4F9081986090838F5F8830B0F3F0
:1006200008958BD0089581B18B7F81B980B18460AA
:1006300080B9E2E1F4E080818860808380818F77F7
:1006400080838081887F8083A0E0B2E011968C91C6
:100650001197806111968C93119781B18D7F81B92B
:1006600080B1826080B9E1E1F4E0808188608083BC
:1006700080818F7780838081887F808311968C91A1
:100680001197806111968C933FD00895A5DF9BDF71
:10069000C8DF9BDF81D0C7DF94DF0895E0E1F8E099
:1006A00081858E7F8187089580911D080895E0E1FE
:1006B000F8E08587828583608287089583E0809350
:1006C0001A08089586E080931A0808958093E23E00
:1006D0009093E33E08958093E03E9093E13E089529
:1006E0008093E43E9093E53E08958093DE3E9093A0
:1006F000DF3E08958093E83E9093E93E089580930D
:10070000E63E9093E73E0895E0E1F8E08EE98487C5
:1007100081EE818780E090E0DEDF80E090E0D6DF50
:1007200080E090E0DDDF80E090E0DFDF80E090E0DF
:10073000E1DF80E090E0E3DF089580E008959058E5
:10074000FC01808108959058FC01108242E06DE91F
:1007500080E090E11DD08091021082FF02C081E014
:10076000089580E00895DC01B05890E4FB01019009
:100770000D929A95E1F741E06DE980E090E108D0B3
:100780008091021082FF02C081E0089580E0089508
:10079000FC0164BF4083089580E00895F894FFCF82
:0B07A000415454494E593136313700A6
:00000001FF
