:100A000019C033C032C031C030C02FC02EC02DC07D
:100A10002CC02BC02AC029C028C027C026C025C092
:100A200024C023C022C021C020C01FC01EC01DC0C2
:100A30001CC01BC011241FBECFEFCDBFDFE3DEBF44
:100A40001EE3A0E0BEE3E2E8F3E102C005900D92F0
:100A5000AE30B107D9F72EE3AEE0BEE301C01D9280
:100A6000A731B207E1F782D03BC4CACFCAD00895FC
:100A700080EF9FE1D0D080930E3E80910E3E813674
:100A8000B1F184EE92E949D180EF9FE102D18093E8
:100A90000F3E41E660E17EE380EF9FE1C0D09091A0
:100AA0000F3E892B80930F3E49E060E17EE381EFAA
:100AB0009FE1B5D090910F3E892B80930F3E49E086
:100AC00060E17EE382EF9FE1AAD090910F3E892BF7
:100AD00080930F3E40E060E17EE383EF9FE19FD093
:100AE00090910F3E892B80930F3E81E0089580E026
:100AF00008950F931F93CF93DF9380EF9FE18BD0E7
:100B0000082F81EF9FE187D0182F82EF9FE183D0DC
:100B1000D82F83EF9FE17FD0C82F8FEF92E9FDD0D0
:100B20001F920F938BE093E99F938F93E3D01F92D3
:100B30001F9387E293E99F938F93DCD01F92DF93FB
:100B400083E493E99F938F93D5D01F92CF938FE542
:100B500093E99F938F93CED08DB79EB740968DBF6C
:100B60009EBFDF91CF911F910F9108957FDF8BE79B
:100B700093E9D3D07DDFBDDF25E186E195E021500B
:100B800080409040E1F7F8CF80E0089580E008953C
:100B900080E0089580E008C0E82FF0E0E05FFB4FC0
:100BA0009081986090838F5F8830B0F380E008C0B8
:100BB000E82FF0E0E05DFB4F9081986090838F5FBD
:100BC0008830B0F380E008C0E82FF0E0E05BFB4F36
:100BD0009081986090838F5F8830B0F3089584B1DE
:100BE000877F84B9E3E3F4E08081877F808385B1E8
:100BF0008B7F85B984B1846084B961D0089509D0B0
:100C00000895C8DFC3DFEBDFFADFC2DF56D0BCDFF9
:100C1000089580E008959058FC01808108950F9315
:100C20001F93CF93DF93EC019C0130588901007C26
:100C3000D80190E006C0FD01E20FF31F3081308340
:100C40009F5F292F30E0BE016F7377272617370784
:100C500090F381E0890FF801E20FF31F408306C093
:100C6000FD01E80FF11D908190838F5F8034C0F308
:100C700043E06DE980E090E11CD08091021082FF9A
:100C800002C081E001C080E0DF91CF911F910F9100
:100C900008959058FC01108242E06DE980E090E1F7
:100CA00008D08091021082FF02C081E0089580E0A8
:100CB0000895FC0164BF4083089580E00895E0E05A
:100CC000F8E084E790E08087918780EC868380E07D
:100CD0009EE38093133E9093143E80E0089590919C
:100CE000040895FFFCCF809302080895F8DF80E0A8
:100CF00090E00895A0E0B0E0EFE7F6E0D0C2AE01EA
:100D00004B5F5F4FFA0161917191AF018091133E8A
:100D10009091143E32D0E2E0DBC20F931F93CF9349
:100D2000DF93E091133EF091143E238121FF1BC01D
:100D30008C01D0E0C0E0F80181918F016091133EF9
:100D40007091143EDB011896ED91FC911997882360
:100D500031F00995892B79F3DFEFCFEFECCF8AE003
:100D60000995892B19F08FEF9FEF02C08D2F9C2FD3
:100D7000DF91CF911F910F910895ABE0B0E0E2ECCD
:100D8000F6E07DC26C017B018A01FC0116821782AC
:100D9000838181FFBFC1CE0101963C01F6019381A1
:100DA000F70193FD859193FF81917F01882309F4D9
:100DB000ADC1853239F493FD859193FF81917F0117
:100DC000853221F4B60190E0C0D1E8CF912C212CDE
:100DD000312CFFE1F315D8F08B3279F038F4803202
:100DE00079F08332A1F4232D20611DC08D3261F092
:100DF000803369F4232D216016C0832D8260382E44
:100E0000E32DE4603E2E2AC0F32DF8601DC037FCB0
:100E10002DC020ED280F2A3040F08E32B9F436FC78
:100E200075C1232D2064322E19C036FE06C08AE01B
:100E3000989E200D1124922E11C0EAE02E9E200DC6
:100E40001124222EF32DF0623F2E08C08C3621F49F
:100E5000832D8068382E02C0883641F4F70193FD57
:100E6000859193FF81917F018111B3CF982F9F7D51
:100E70009554933028F40C5F1F4F9FE399830DC066
:100E8000833631F0833771F0833509F055C020C0C7
:100E9000F801808189830E5F1F4F88248394912CF1
:100EA000530112C02801F2E04F0E511CF801A0803E
:100EB000B18036FE03C0692D70E002C06FEF7FEF96
:100EC000C50138D14C018201F32DFF773F2E15C0AB
:100ED000280122E0420E511CF801A080B18036FEAC
:100EE00003C0692D70E002C06FEF7FEFC50117D11D
:100EF0004C01F32DF0683F2E820133FC19C0822D86
:100F000090E088169906A0F4B60180E290E01DD129
:100F10002A94F5CFF50137FC859137FE81915F0169
:100F2000B60190E012D121102A9421E0821A910892
:100F30008114910479F7E1C0843611F0893639F5CE
:100F4000F80137FE07C060817181828193810C5F57
:100F50001F4F08C060817181072E000C880B990B10
:100F60000E5F1F4FF32DFF763F2E97FF09C0909520
:100F70008095709561957F4F8F4F9F4FF0683F2E02
:100F80002AE030E0A3011DD1882E861844C08537A1
:100F900031F4232D2F7EB22E2AE030E025C0932D90
:100FA000997FB92E8F36C1F018F4883579F0AEC02C
:100FB000803719F0883721F0A9C0E92FE061BE2EF3
:100FC000B4FE0DC0FB2DF460BF2E09C034FE0AC074
:100FD000292F2660B22E06C028E030E005C020E1AF
:100FE00030E002C020E132E0F801B7FE07C06081C6
:100FF0007181828193810C5F1F4F06C06081718176
:1010000080E090E00E5F1F4FA301DBD0882E861892
:10101000FB2DFF773F2E36FE0DC0232D2E7FA22EF7
:10102000891458F434FE0BC032FC09C0832D8E7E27
:10103000A82E05C0B82CA32C03C0B82C01C0B92C15
:10104000A4FE0FC0FE01E80DF11D8081803321F464
:101050009A2D997EA92E09C0A2FE06C0B394B3941E
:1010600004C08A2D867809F0B394A3FC10C0A0FEBA
:1010700006C0B21480F4280C922C9B180DC0B21438
:1010800058F4B60180E290E060D0B394F8CFB21487
:1010900018F42B1802C0982C212CA4FE0FC0B60106
:1010A00080E390E052D0A2FE16C0A1FC03C088E706
:1010B00090E002C088E590E0B6010CC08A2D8678E9
:1010C00051F0A1FE02C08BE201C080E2A7FC8DE2DC
:1010D000B60190E03AD0891430F4B60180E390E094
:1010E00034D09A94F8CF8A94F301E80DF11D8081F1
:1010F000B60190E02AD08110F6CF222009F44ECE1E
:10110000B60180E290E021D02A94F7CFF6018681E3
:10111000978102C08FEF9FEF2B96E2E1C9C0FC01DF
:101120000590615070400110D8F7809590958E0F12
:101130009F1F0895FC016150704001900110D8F785
:10114000809590958E0F9F1F08950F931F93CF93B7
:10115000DF93FB01238121FD03C08FEF9FEF2CC0A4
:1011600022FF16C0468157812481358142175307DB
:1011700044F4A081B1819D012F5F3F4F20833183D3
:101180008C93268137812F5F3F4F2683378314C08E
:101190008B01EC01FB010084F185E02D0995892B81
:1011A000E1F6D80116968D919C91179701961696A7
:1011B0008D939C931797CE01DF91CF911F910F9143
:1011C0000895FA01AA27283051F1203181F1E894DD
:1011D0006F936E7F6E5F7F4F8F4F9F4FAF4FB1E02A
:1011E0003ED0B4E03CD0670F781F891F9A1FA11D25
:1011F000680F791F8A1F911DA11D6A0F711D811D26
:10120000911DA11D20D009F468943F912AE0269FEA
:1012100011243019305D3193DEF6CF010895462F49
:101220004770405D4193B3E00FD0C9F7F6CF462F2A
:101230004F70405D4A3318F0495D31FD4052419393
:1012400002D0A9F7EACFB4E0A69597958795779550
:101250006795BA95C9F700976105710508959B01D7
:10126000AC010A2E06945795479537952795BA9560
:10127000C9F7620F731F841F951FA01D08952F9239
:101280003F924F925F926F927F928F929F92AF9216
:10129000BF92CF92DF92EF92FF920F931F93CF9363
:1012A000DF93CDB7DEB7CA1BDB0BCDBFDEBF099422
:1012B0002A88398848885F846E847D848C849B84E6
:1012C000AA84B984C884DF80EE80FD800C811B81F4
:1012D000AA81B981CE0FD11DCDBFDEBFED0108952A
:0412E000F894FFCFB0
:1012E400466972737420426F6F74204D616E2C20B6
:1012F40057656C636F6D653A290D00465720496E3A
:10130400666F203D3E0D004657204D61676963209E
:101314004E756D62657220203A203078253032781F
:101324000D0A004657204D616A6F7220566572732C
:10133400696F6E203A203078253032780D0A0046E5
:1013440057204D696E6F722056657273696F6E20F7
:101354003A203078253032780D0A004657205265FD
:10136400766973696F6E2020202020203A2030781F
:0E137400253032780D0A0068656C6C6F0D0034
:0E1382000000000200000000760600000000DF
:0400000300000A00EF
:00000001FF
