:100000000C943E000C945B000C945B000C945B0021
:100010000C945B000C945B000C945B000C945B00F4
:100020000C945B000C945B000C945B000C945B00E4
:100030000C945B000C945B000C945B000C945B00D4
:100040000C945B000C945B000C945B000C945B00C4
:100050000C945B000C945B000C945B000C945B00B4
:100060000C945B000C94FA070C945B000C945B00FE
:100070000C945B000C945B000C945B0011241FBE7D
:10008000CFEFCDBFDFE3DEBF18E3A0E0B8E3E4ECE1
:10009000F0E302C005900D92A833B107D9F728E329
:1000A000A8E3B8E301C01D92A836B207E1F70E94A9
:1000B00098040C947A0C0C9400000E946505089535
:1000C000809139388F5F8093393881E0089580912D
:1000D00038388F5F8093383881E00895FC01628161
:1000E0007381808191810E94D40760E070E08EE18D
:1000F00098E00E94560760E070E087E690E00E947A
:10010000620760E070E080E690E00E945C0784E0B7
:100110000895FC0162817381808191810E94D407DE
:1001200060E070E08EE198E00E94560760E070E0C9
:1001300087E690E00E94620760E070E080E690E071
:100140000E945C0784E00895CF93DF93CDB7DEB7BC
:100150002597CDBFDEBF8D8369837A834B835C8314
:100160008FE40E946F078823D9F3BE016F5F7F4F32
:100170008EE690E00E94560760E070E080E690E036
:100180000E945C0761E070E0CE0105960E94D407F2
:1001900080E00E94E3070E94AC078130E1F32596DE
:1001A000CDBFDEBFDF91CF910895EF92FF920F9305
:1001B0001F93CF93DF93CDB7DEB72597CDBFDEBFBB
:1001C0008D83790169837A834B835C838FE40E94FA
:1001D0006F078823D9F3BE016F5F7F4F89E890E0F6
:1001E0000E94560760E070E080E690E00E945C07A5
:1001F00061E070E0CE0105960E94D40780E00E9485
:10020000E3070E94AC078130E1F38FE40E946F079F
:100210008823D9F3B801C7010E94D40781E00E9466
:10022000E3070E94AC078130E1F32596CDBFDEBF26
:10023000DF91CF911F910F91FF90EF900895AC0146
:1002400030E080E014C0FA01E30FF11D90818927AE
:1002500020E00AC0882334F490E0880F991F97E0CB
:10026000892701C0880F2F5F2830A0F33F5F361722
:1002700050F308950F931F93CF93DF93CDB7DEB75D
:10028000CC54D109CDBFDEBF182FFE01379686E4CE
:10029000DF011D928A95E9F784E4888780E28987E7
:1002A0001B87B0E41B9FB001112420E013C0822FF4
:1002B00090E0AC014B5F5F4F860F971FFC01EE5F34
:1002C000F5468081E7E0F0E0EC0FFD1FE40FF51F3D
:1002D00080832F5F203458F365E4CE0107960E9497
:1002E0001F012D968FAF2D9745E450E0BE01685F4A
:1002F0007F4F80E00E94A40083ED90E30197F1F727
:1003000000C000002D968FAD2D971F928F9388EF20
:1003100098E99F938F930E9472091F921F938FE019
:1003200099E99F938F930E947209CDBFDEBF11E0C0
:100330001EC0E12FF0E0349687E090E08C0F9D1F07
:10034000E80FF91F80811F928F9382E299E99F93B2
:100350008F930E9472090F900F900F900F90812F32
:100360008F7021F481EA99E90E9488091F5F113496
:1003700000F381E0898384E08A8382E08B831C829E
:100380001D8265E0CE0101960E941F018E8303E06D
:1003900010E09E01295F3F4F45E050E0BE016E5FD7
:1003A0007F4F81E00E94D50018851F921F9389E23C
:1003B00099E99F938F930E9472090F900F900F906D
:1003C0000F90812FC45BDF4FCDBFDEBFDF91CF9198
:1003D0001F910F910895CF93DF93D0E0C0E00CC040
:1003E000C11106C08D2F0E943A01811103C003C0C4
:1003F000C1E001C0C1E0DF5FD83590F31F92CF9319
:1004000085E499E99F938F930E9472090F900F9052
:100410000F900F908C2FDF91CF910895EF92FF9264
:100420000F931F93CF93DF93CDB7DEB7CC54D10991
:10043000CDBFDEBF7E0197E0E90EF11C96E4F70127
:1004400011929A95E9F791E0998394E09A8390E468
:100450009B831C828D8365E0CE0101960E941F0163
:100460008E8302E410E0970145E050E0BE016E5F2C
:100470007F4F81E00E94D50011E01BC0E7E0F0E073
:10048000EC0FFD1FE10FF11D80811F928F9382E21F
:1004900099E99F938F930E9472090F900F900F908C
:1004A0000F90812F8F7021F481EA99E90E948809C9
:1004B0001F5F113418F381EA99E90E94880980E0EE
:1004C000C45BDF4FCDBFDEBFDF91CF911F910F9196
:1004D000FF90EF900895CF93C0E004C08C2F0E944E
:1004E0000E02CF5FC835D0F3CF910895EF92FF92FF
:1004F0000F931F93CF93DF93CDB7DEB76097CDBF38
:10050000DEBF182F7E0187E0E80EF11C8AE0F701BC
:1005100011928A95E9F7198204E00A8380E18B83BE
:100520001C821D8365E0CE0101960E941F018E830F
:1005300045E050E0BE016E5F7F4F80E00E94A40066
:1005400081E089830A838B831C821D8365E0CE0151
:1005500001960E941F018E8303E010E0970145E0A1
:1005600050E0BE016E5F7F4F81E00E94D50088851C
:100570006096CDBFDEBFDF91CF911F910F91FF90AD
:10058000EF900895CF93DF93CDB7DEB72697CDBF19
:10059000DEBF81E0898384E08A8380E88B831C82CC
:1005A0001D8265E0CE0101960E941F018E831F927D
:1005B0001F928EE599E99F938F930E9472090F9085
:1005C0000F900F900F9080E02696CDBFDEBFDF9199
:1005D000CF9108951F93CF93DF93CDB7DEB72697C2
:1005E000CDBFDEBF811129C08AE799E90E94880941
:1005F000198284E08A8388E08B831C821D8265E0F7
:10060000CE0101960E941F018E8345E050E0BE019D
:100610006E5F7F4F80E00E94A4000E94C202182FEC
:10062000882331F08FE899E90E94880911E030C0F1
:1006300083EA99E90E9488092BC0813041F58AE755
:1006400099E90E948809198284E08A838B831C823D
:100650001D8265E0CE0101960E941F018E8345E058
:1006600050E0BE016E5F7F4F80E00E94A4000E94B8
:10067000C202813031F08FE899E90E94880911E0C7
:1006800007C083EA99E90E94880910E001C001C00F
:10069000812F2696CDBFDEBFDF91CF911F910895A8
:1006A000CF92DF92EF92FF920F931F93CF93DF933E
:1006B000CDB7DEB76297CDBFDEBF8AE090E00E9483
:1006C00042087C016E0187E0C80ED11C8CE0F60167
:1006D00011928A95E9F781E0898394E09A838B836C
:1006E0001C821D8265E0CE0101960E941F018E834F
:1006F0000CE010E0960145E050E0BE016E5F7F4FD8
:1007000081E00E94D5004AE050E0BE01685F7F4F63
:10071000C7010E946309C7016296CDBFDEBFDF91AA
:10072000CF911F910F91FF90EF90DF90CF900895A0
:10073000CF92DF92EF92FF920F931F93CF93DF93AD
:10074000CDB7DEB76297CDBFDEBF83E090E00E94F9
:1007500042087C016E0187E0C80ED11C8CE0F601D6
:1007600011928A95E9F781E0898384E08A8382E0A7
:100770008B831C821D8265E0CE0101960E941F01C1
:100780008E8305E010E0960145E050E0BE016E5F0B
:100790007F4F81E00E94D5008885F701808389859D
:1007A00081838A858283C7016296CDBFDEBFDF91D8
:1007B000CF911F910F91FF90EF90DF90CF90089510
:1007C0000F931F93CF93DF93CDB7DEB72C97CDBF99
:1007D000DEBF8DE090E00E9442088C018CE0FE01BB
:1007E0003196DF01982F1D929A95E9F7DF011D924E
:1007F0008A95E9F70E94C202813019F480E00E94D4
:10080000EA020E9450034AE050E0BC01C8010E9485
:1008100063090E949803FC012081D8011A962C9349
:100820001A9721811B962C931B9722811C962C933F
:100830000E94DA08C8012C96CDBFDEBFDF91CF91B0
:100840001F910F910895CF92DF92EF92FF920F9335
:100850001F93CF93DF93CDB7DEB76297CDBFDEBFD7
:1008600086E090E00E9442087C016E0187E0C80E9D
:10087000D11C8CE0F60111928A95E9F781E0898319
:1008800084E08A838B831C821D8265E0CE01019601
:100890000E941F018E8305E010E0960145E050E0C4
:1008A000BE016E5F7F4F81E00E94D5008885F70111
:1008B0008083898581838A858283C7016296CDBFC3
:1008C000DEBFDF91CF911F910F91FF90EF90DF90EE
:1008D000CF9008951F921F9289EB99E99F938F9370
:1008E0000E9472091F921F9288EC99E99F938F933F
:1008F0000E9472090E94C2022DB73EB7285F3F4F87
:100900002DBF3EBF813019F081E00E94EA028FEFD7
:100910000E947602811104C08CED99E90E94880939
:100920000E94EB010E946B0280E00E94EA0208959F
:100930000E945D00789482E090EB0E9488090E94FA
:10094000E0038C010E942304EC011F930F9389E0C4
:1009500090EB9F938F930E947209F80124859385F1
:1009600082851F922F931F929F931F928F9388E1EE
:1009700090EB9F938F930E9472092A8199818881BD
:100980001F922F931F929F931F928F9380E590EB5E
:100990009F938F930E94720988812DB73EB72C5E7A
:1009A0003F4F2DBF3EBF8F3F69F489818F3F51F488
:1009B0008A818F3F39F482E890EB0E9488090E9477
:1009C0006A04BDCF8EE990EB0E948809C8010E949D
:1009D000DA08CE010E94DA083FE181EA97E031505F
:1009E00080409040E1F700C00000F6CF80E008951D
:1009F00043E068ED81E690E00E94200880E00895E1
:100A000080E0089580E008C0E82FF0E0E05FFB4F51
:100A10009081986090838F5F8830B0F380E008C049
:100A2000E82FF0E0E05DFB4F9081986090838F5F4E
:100A30008830B0F380E008C0E82FF0E0E05BFB4FC7
:100A40009081986090838F5F8830B0F3089580B173
:100A50008B7F80B9E2E1F4E08081877F8083E0E0F2
:100A6000F2E081818160818381B18D7F81B980B124
:100A7000826080B98181816081830E942608089507
:100A800085B18E7F85B984B1816084B9E0E3F4E0FB
:100A90008081877F808380818F7780838081887F3A
:100AA000808385B18D7F85B984B1826084B9E1E3AB
:100AB000F4E08081877F808380818F77808380814D
:100AC000887F80830E94680708950E9402050E9423
:100AD000F8040E9427050E9400050E9424080E9435
:100AE00040050E94F6040895E0E1F8E08481886002
:100AF0008483858181608583EAE3F8E380818E7F4A
:100B0000808313868EE00895EAE3F8E380818E7F88
:100B10008083138680E00895E0E1F8E084818360BB
:100B200084830E9484050895EAE3F8E38081886065
:100B30008083818190E0880F991F816080931708DE
:100B400084E008950E94940508950E9494050895F4
:100B5000EAE3F8E38081886080838181880F809355
:100B6000170883E008950E94A8050895AAE3B8E352
:100B70008C91877F8C9382E01B968C931B97509669
:100B8000ED91FC9151975C968D919C915D970995A3
:100B9000823019F0833021F006C00E94A505089527
:100BA0000E94B30508950E948C050895E0E1F8E0E5
:100BB00084818B7F848384E00895E0E1F8E0848180
:100BC0008B7F848383E00895E0E1F8E08481846092
:100BD00084838481836084830E9484050895E0E196
:100BE000F8E084818460848388E00895809115080A
:100BF00084FF19C0AAE3B8E35296ED91FC91539794
:100C00005E968D919C915F970995823019F08330A3
:100C100021F006C00E94A50508950E94B30508951D
:100C20000E948C050895EAE3F8E38081877F808342
:100C3000A281B381CD010196828393838C918093AD
:100C4000180884819581019784839583892B11F0FD
:100C500083E0089585E00895CF93DF93EAE3F8E316
:100C60008081877F808384819581019731F4E0E1E1
:100C7000F8E084818460848305C0E0E1F8E0848149
:100C80008B7F8483EAE3F8E38481958101978483F1
:100C90009583892BA9F0DF01C281D381E0E1F8E0DF
:100CA0008085888312968D919C9113970196129658
:100CB0008D939C93139784818260848384E026C003
:100CC000AAE3B8E31296ED91FC911397809118086E
:100CD000808312968D919C911397019612968D9315
:100CE0009C9313978C9184608C931C96ED91FC914E
:100CF0001D9758968D919C915997099582508230F5
:100D000018F40E94EF0502C00E94E405DF91CF9124
:100D100008958091150884FF19C0AAE3B8E352969C
:100D2000ED91FC9153975E968D919C915F970995FB
:100D3000823019F0833021F006C00E94A505089585
:100D40000E94B30508950E948C050895AAE3B8E3B4
:100D50008C9184608C931C96ED91FC911D97589614
:100D60008D919C9159970995833039F0843041F0E9
:100D7000823049F40E94A50508950E94B3050895A4
:100D80000E94F60508950E948C050895E0E1F8E0C0
:100D9000858188608583AAE3B8E382E01B968C9303
:100DA0001B971E96ED91FC911F975A968D919C91E1
:100DB0005B970995823019F0833021F006C00E94BC
:100DC000A50508950E94B30508950E94740508952D
:100DD000E0E1F8E084818860848385818160858397
:100DE000EAE3F8E380818E7F808382E083878EE070
:100DF0000895CF93DF93E0E1F8E08581806C8583EF
:100E000080913A3883FF07C08091150884FF03C0A2
:100E10008FE0809344388091150883FF03C080E100
:100E2000809344388091150882FF03C081E180934C
:100E30004438CAE3D8E3EA85F0E0EE0FFF1FEA5F2B
:100E4000F74C0190F081E02D09958A87DF91CF91D1
:100E5000089581E0089585E008956115710591F088
:100E600090E0FC013696EE0FFF1FE65CF74C6083C6
:100E70007183FC013C96EE0FFF1FE65CF74C40834C
:100E80005183089590E0FC013696EE0FFF1FE65C5B
:100E9000F74C29E237E020833183FC013C96EE0FCA
:100EA000FF1FE65CF74C108211820895AB01BC0174
:100EB00080E00E942D070895AB01BC0182E00E94F2
:100EC0002D070895AB01BC0183E00E942D07089512
:100ED000E0E1F8E081E0868381EC838308959091DE
:100EE0003A3891FD37C0EAE3F8E38183892F8E7F9A
:100EF00082609EE0928724EF31E020873187877FF0
:100F00008460808389E297E084879587108E118EB4
:100F100086879787128E138E808B918B148E158EF9
:100F2000828B938B168E178E8BE297E0848B958B3A
:100F300010A211A2E0E1F8E08481886084838581B9
:100F4000816085838581806C85838381806C8383C8
:100F500080E0089581E008958091150882FF07C020
:100F6000EAE3F8E380818E7F808382E0838780914B
:100F70003A3880FD17C0EAE3F8E38D7F80838FEF76
:100F80008183A0E1B8E015968C911597806C159639
:100F90008C93159713968C9113978F7313968C934C
:100FA0008385089581E008959C0190913A3892FFDD
:100FB00009C0EAE3F8E32283338364837583892FCE
:100FC0008B7F8083089590913A3890FD11C0EAE3B9
:100FD000F8E391609083882321F081E08093443886
:100FE00003C082E0809344380E94F90680E00895AF
:100FF00081E008951F920F920FB60F9211242F9344
:101000003F934F935F936F937F938F939F93AF9390
:10101000BF93EF93FF930E94F906FF91EF91BF9169
:10102000AF919F918F917F916F915F914F913F9180
:101030002F910F900FBE0F901F90189581E008958B
:10104000FC0164BF4083089580E00895E0E0F8E08B
:101050008EEA90E08087918780E486838AE298E335
:10106000809364389093653880E0089590910408E7
:1010700095FFFCCF8093020808950E94360880E017
:1010800090E008950F931F93CF93DF9382309105E3
:1010900010F482E090E0E0916038F091613820E057
:1010A00030E0A0E0B0E0309719F140815181028139
:1010B000138148175907C8F08417950769F41097EA
:1010C00031F012960C93129713961C9327C000933D
:1010D00060381093613822C02115310519F042178C
:1010E000530718F49A01BD01EF01DF01F801DBCFCE
:1010F00021153105F9F0281B390B2430310580F416
:101100008A819B816115710521F0FB0182839383A4
:1011100004C08093603890936138FE01329644C0D9
:10112000FE01E20FF31F819391932250310928832E
:1011300039833AC020915E3830915F38232B41F4D7
:10114000209102383091033820935E3830935F3815
:1011500020910038309101382115310541F42DB727
:101160003EB74091043850910538241B350BE0916F
:101170005E38F0915F38E217F307A0F42E1B3F0BA7
:101180002817390778F0AC014E5F5F4F24173507F9
:1011900048F04E0F5F1F40935E3850935F38819345
:1011A000919302C0E0E0F0E0CF01DF91CF911F9179
:1011B0000F910895CF93DF93009709F481C0FC014C
:1011C000329712821382A0916038B09161381097E3
:1011D00081F420813181820F931F20915E383091FC
:1011E0005F382817390751F5E0935E38F0935F3880
:1011F00067C0ED0120E030E0CE17DF0740F44A8100
:101200005B819E0141155105F1F0EA01F5CFC283E2
:10121000D38340815181840F951FC817D90759F492
:1012200088819981840F951F0296808391838A819A
:101230009B81828393832115310529F4E0936038E3
:10124000F09361383DC0E901EA83FB8349915991EC
:10125000C40FD51FEC17FD0761F480819181840FC5
:10126000951F0296E90188839983828193818A83FD
:101270009B83E0E0F0E012968D919C91139700978C
:1012800019F0FD01DC01F7CF8D919C9111979D0123
:101290002E5F3F4F820F931F20915E3830915F3851
:1012A0002817390769F4309729F4109260381092A2
:1012B000613802C012821382A0935E38B0935F3807
:1012C000DF91CF910895FB01DC014150504048F07F
:1012D00001900D920020C9F701C01D92415050406D
:1012E000E0F70895A0E0B0E0E8E7F9E00C94590CCD
:1012F000AE014B5F5F4FFA0161917191AF01809137
:101300006438909165380E94B809E2E00C94720C40
:101310000F931F93CF93DF93E0916438F09165387A
:10132000238121FF1BC08C01D0E0C0E0F801819136
:101330008F016091643870916538DB011896ED91EA
:10134000FC911997882331F00995892B79F3DFEF08
:10135000CFEFECCF8AE00995892B19F08FEF9FEF43
:1013600002C08D2F9C2FDF91CF911F910F91089577
:10137000ABE0B0E0EEEBF9E00C94490C6C017B01C2
:101380008A01FC0116821782838181FFCCC1CE01C4
:1013900001963C01F6019381F70193FD859193FF3E
:1013A00081917F01882309F4BAC1853239F493FD14
:1013B000859193FF81917F01853229F4B60190E0F8
:1013C0000E94AF0BE7CF912C212C312CFFE1F315BC
:1013D000D8F08B3279F038F4803279F08332A1F48E
:1013E000232D20611DC08D3261F0803369F4232DDF
:1013F000216016C0832D8260382EE32DE4603E2EDE
:101400002AC0F32DF8601DC037FC2DC020ED280F39
:101410002A3040F08E32B9F436FC81C1232D20648D
:10142000322E19C036FE06C08AE0989E200D112487
:10143000922E11C0EAE02E9E200D1124222EF32DB3
:10144000F0623F2E08C08C3621F4832D8068382E40
:1014500002C0883641F4F70193FD859193FF819195
:101460007F018111B3CF982F9F7D9554933028F43D
:101470000C5F1F4F9FE399830DC0833631F0833794
:1014800071F0833509F059C021C0F801808189834A
:101490000E5F1F4F88248394912C530113C02801A1
:1014A000F2E04F0E511CF801A080B18036FE03C05F
:1014B000692D70E002C06FEF7FEFC5010E94A40BA1
:1014C0004C018201F32DFF773F2E16C0280122E048
:1014D000420E511CF801A080B18036FE03C0692D78
:1014E00070E002C06FEF7FEFC5010E94990B4C01C5
:1014F000F32DF0683F2E820133FC1BC0822D90E05B
:1015000088169906B0F4B60180E290E00E94AF0B15
:101510002A94F4CFF50137FC859137FE81915F0164
:10152000B60190E00E94AF0B21102A9421E0821AAC
:1015300091088114910471F7E8C0843611F089365E
:1015400041F5F80137FE07C0608171818281938186
:101550000C5F1F4F08C060817181072E000C880B43
:10156000990B0E5F1F4FF32DFF763F2E97FF09C09B
:1015700090958095709561957F4F8F4F9F4FF06844
:101580003F2E2AE030E0A3010E94EB0B882E861844
:1015900045C0853731F4232D2F7EB22E2AE030E06E
:1015A00025C0932D997FB92E8F36C1F018F4883558
:1015B00079F0B5C0803719F0883721F0B0C0E92F35
:1015C000E061BE2EB4FE0DC0FB2DF460BF2E09C03D
:1015D00034FE0AC0292F2660B22E06C028E030E073
:1015E00005C020E130E002C020E132E0F801B7FEA2
:1015F00007C060817181828193810C5F1F4F06C09B
:101600006081718180E090E00E5F1F4FA3010E9416
:10161000EB0B882E8618FB2DFF773F2E36FE0DC074
:10162000232D2E7FA22E891458F434FE0BC032FCD9
:1016300009C0832D8E7EA82E05C0B82CA32C03C014
:10164000B82C01C0B92CA4FE0FC0FE01E80DF11D9D
:101650008081803321F49A2D997EA92E09C0A2FEA3
:1016600006C0B394B39404C08A2D867809F0B3946D
:10167000A3FC11C0A0FE06C0B21488F4280C922C62
:101680009B180EC0B21460F4B60180E290E00E9494
:10169000AF0BB394F7CFB21418F42B1802C0982CE8
:1016A000212CA4FE10C0B60180E390E00E94AF0B95
:1016B000A2FE17C0A1FC03C088E790E002C088E545
:1016C00090E0B6010CC08A2D867859F0A1FE02C0C8
:1016D0008BE201C080E2A7FC8DE2B60190E00E949F
:1016E000AF0B891438F4B60180E390E00E94AF0B91
:1016F0009A94F7CF8A94F301E80DF11D8081B60129
:1017000090E00E94AF0B8110F5CF222009F442CE69
:10171000B60180E290E00E94AF0B2A94F6CFF6016A
:101720008681978102C08FEF9FEF2B96E2E10C94A8
:10173000620CFC010590615070400110D8F7809553
:1017400090958E0F9F1F0895FC016150704001908D
:101750000110D8F7809590958E0F9F1F08950F93D5
:101760001F93CF93DF93FB01238121FD03C08FEFF4
:101770009FEF2CC022FF16C04681578124813581FE
:101780004217530744F4A081B1819D012F5F3F4F61
:10179000208331838C93268137812F5F3F4F2683AF
:1017A000378314C08B01EC01FB010084F185E02D2F
:1017B0000995892BE1F6D80116968D919C91179782
:1017C000019616968D939C931797CE01DF91CF913A
:1017D0001F910F910895FA01AA27283051F1203165
:1017E00081F1E8946F936E7F6E5F7F4F8F4F9F4FB5
:1017F000AF4FB1E03ED0B4E03CD0670F781F891FF7
:101800009A1FA11D680F791F8A1F911DA11D6A0FC4
:10181000711D811D911DA11D20D009F468943F9177
:101820002AE0269F11243019305D3193DEF6CF0176
:101830000895462F4770405D4193B3E00FD0C9F73C
:10184000F6CF462F4F70405D4A3318F0495D31FDA9
:101850004052419302D0A9F7EACFB4E0A6959795FC
:10186000879577956795BA95C9F7009761057105D2
:1018700008959B01AC010A2E06945795479537951C
:101880002795BA95C9F7620F731F841F951FA01D76
:1018900008952F923F924F925F926F927F928F9214
:1018A0009F92AF92BF92CF92DF92EF92FF920F93EF
:1018B0001F93CF93DF93CDB7DEB7CA1BDB0BCDBF32
:1018C000DEBF09942A88398848885F846E847D84C5
:1018D0008C849B84AA84B984C884DF80EE80FD80D8
:1018E0000C811B81AA81B981CE0FD11DCDBFDEBF76
:0818F000ED010895F894FFCF0B
:1018F80070616765206461746120637263203A20B7
:10190800253032780D0A0070616765282564292022
:1019180064617461203D3E0D0A00253032782C2028
:10192800007061676520777269746520637263204F
:10193800636865636B203A2025640D0A007061674F
:101948006520777269746520726573756C74203AC6
:101958002025640D0A00636865636B20667720752F
:101968007064617465206D6F6465203A2025640D8C
:101978000A00476F20426F6F74204E6F726D616C62
:10198800204D6F64650D004D6F6465204368616E7E
:101998006765204661696C21210D004D6F646520E3
:1019A8004368616E67652053756365737321210D04
:1019B8000066772073697A65203A2025640D0A004D
:1019C800667720706167652073697A65203A2025FB
:1019D800640D0A00416C6C20506167652045726196
:1019E80073652053756365737321210D004578690C
:1019F8007420426F6F7421210D0019C033C032C0AA
:101A080031C030C02FC02EC02DC02CC02BC02AC062
:101A180029C028C027C026C025C024C023C022C092
:101A280021C020C01FC01EC01DC01CC01BC0112467
:101A38001FBECFEFCDBFDFE3DEBF1EE3A0E0BEE3F6
:101A4800E2E8F3E102C005900D92AE30B107D9F794
:101A58002EE3AEE0BEE301C01D92A731B207E1F765
:101A680082D03BC4CACFCAD0089580EF9FE1D0D0BE
:101A780080930E3E80910E3E8136B1F184EE92E95C
:101A880049D180EF9FE102D180930F3E41E660E1AA
:101A98007EE380EF9FE1C0D090910F3E892B809329
:101AA8000F3E49E060E17EE381EF9FE1B5D0909180
:101AB8000F3E892B80930F3E49E060E17EE382EF81
:101AC8009FE1AAD090910F3E892B80930F3E40E072
:101AD80060E17EE383EF9FE19FD090910F3E892BD9
:101AE80080930F3E81E0089580E008950F931F933F
:101AF800CF93DF9380EF9FE18BD0082F81EF9FE199
:101B080087D0182F82EF9FE183D0D82F83EF9FE1F2
:101B18007FD0C82F8FEF92E9FDD01F920F938BE0F3
:101B280093E99F938F93E3D01F921F9387E293E9E2
:101B38009F938F93DCD01F92DF9383E493E99F9365
:101B48008F93D5D01F92CF938FE593E99F938F936F
:101B5800CED08DB79EB740968DBF9EBFDF91CF91F7
:101B68001F910F9108957FDF8BE793E9D3D07DDF35
:101B7800BDDF25E186E195E0215080409040E1F706
:101B8800F8CF80E0089580E0089580E0089580E02F
:101B980008C0E82FF0E0E05FFB4F908198609083E9
:101BA8008F5F8830B0F380E008C0E82FF0E0E05D98
:101BB800FB4F9081986090838F5F8830B0F380E00E
:101BC80008C0E82FF0E0E05BFB4F908198609083BD
:101BD8008F5F8830B0F3089584B1877F84B9E3E3D9
:101BE800F4E08081877F808385B18B7F85B984B15C
:101BF800846084B961D0089509D00895C8DFC3DF2F
:101C0800EBDFFADFC2DF56D0BCDF089580E008952D
:101C18009058FC01808108950F931F93CF93DF9311
:101C2800EC019C0130588901007CD80190E006C085
:101C3800FD01E20FF31F308130839F5F292F30E0D1
:101C4800BE016F7377272617370790F381E0890F56
:101C5800F801E20FF31F408306C0FD01E80FF11DF4
:101C6800908190838F5F8034C0F343E06DE980E01A
:101C780090E11CD08091021082FF02C081E001C077
:101C880080E0DF91CF911F910F9108959058FC014A
:101C9800108242E06DE980E090E108D08091021066
:101CA80082FF02C081E0089580E00895FC0164BFCE
:101CB8004083089580E00895E0E0F8E084E790E04C
:101CC8008087918780EC868380E09EE38093133E33
:101CD8009093143E80E008959091040895FFFCCFFE
:101CE800809302080895F8DF80E090E00895A0E06E
:101CF800B0E0EFE7F6E0D0C2AE014B5F5F4FFA010C
:101D080061917191AF018091133E9091143E32D050
:101D1800E2E0DBC20F931F93CF93DF93E091133E72
:101D2800F091143E238121FF1BC08C01D0E0C0E05C
:101D3800F80181918F016091133E7091143EDB018F
:101D48001896ED91FC911997882331F00995892B04
:101D580079F3DFEFCFEFECCF8AE00995892B19F003
:101D68008FEF9FEF02C08D2F9C2FDF91CF911F9196
:101D78000F910895ABE0B0E0E2ECF6E07DC26C01B3
:101D88007B018A01FC0116821782838181FFBFC112
:101D9800CE0101963C01F6019381F70193FD8591EF
:101DA80093FF81917F01882309F4ADC1853239F40D
:101DB80093FD859193FF81917F01853221F4B601CE
:101DC80090E0C0D1E8CF912C212C312CFFE1F31504
:101DD800D8F08B3279F038F4803279F08332A1F47C
:101DE800232D20611DC08D3261F0803369F4232DCD
:101DF800216016C0832D8260382EE32DE4603E2ECC
:101E08002AC0F32DF8601DC037FC2DC020ED280F27
:101E18002A3040F08E32B9F436FC75C1232D206487
:101E2800322E19C036FE06C08AE0989E200D112475
:101E3800922E11C0EAE02E9E200D1124222EF32DA1
:101E4800F0623F2E08C08C3621F4832D8068382E2E
:101E580002C0883641F4F70193FD859193FF819183
:101E68007F018111B3CF982F9F7D9554933028F42B
:101E78000C5F1F4F9FE399830DC0833631F0833782
:101E880071F0833509F055C020C0F801808189833D
:101E98000E5F1F4F88248394912C530112C0280190
:101EA800F2E04F0E511CF801A080B18036FE03C04D
:101EB800692D70E002C06FEF7FEFC50138D14C018A
:101EC8008201F32DFF773F2E15C0280122E0420E34
:101ED800511CF801A080B18036FE03C0692D70E066
:101EE80002C06FEF7FEFC50117D14C01F32DF068E9
:101EF8003F2E820133FC19C0822D90E08816990686
:101F0800A0F4B60180E290E01DD12A94F5CFF50146
:101F180037FC859137FE81915F01B60190E012D1BF
:101F280021102A9421E0821A91088114910479F7EA
:101F3800E1C0843611F0893639F5F80137FE07C05B
:101F480060817181828193810C5F1F4F08C060811D
:101F58007181072E000C880B990B0E5F1F4FF32D14
:101F6800FF763F2E97FF09C09095809570956195F3
:101F78007F4F8F4F9F4FF0683F2E2AE030E0A3013C
:101F88001DD1882E861844C0853731F4232D2F7E25
:101F9800B22E2AE030E025C0932D997FB92E8F36D6
:101FA800C1F018F4883579F0AEC0803719F0883759
:101FB80021F0A9C0E92FE061BE2EB4FE0DC0FB2DB3
:101FC800F460BF2E09C034FE0AC0292F2660B22E45
:101FD80006C028E030E005C020E130E002C020E182
:101FE80032E0F801B7FE07C0608171818281938178
:101FF8000C5F1F4F06C06081718180E090E00E5F2A
:102008001F4FA301DBD0882E8618FB2DFF773F2EAC
:1020180036FE0DC0232D2E7FA22E891458F434FECF
:102028000BC032FC09C0832D8E7EA82E05C0B82CAB
:10203800A32C03C0B82C01C0B92CA4FE0FC0FE010C
:10204800E80DF11D8081803321F49A2D997EA92E07
:1020580009C0A2FE06C0B394B39404C08A2D867842
:1020680009F0B394A3FC10C0A0FE06C0B21480F41B
:10207800280C922C9B180DC0B21458F4B60180E2BB
:1020880090E060D0B394F8CFB21418F42B1802C0C3
:10209800982C212CA4FE0FC0B60180E390E052D00A
:1020A800A2FE16C0A1FC03C088E790E002C088E544
:1020B80090E0B6010CC08A2D867851F0A1FE02C0CE
:1020C8008BE201C080E2A7FC8DE2B60190E03AD035
:1020D800891430F4B60180E390E034D09A94F8CFB4
:1020E8008A94F301E80DF11D8081B60190E02AD0B1
:1020F8008110F6CF222009F44ECEB60180E290E09E
:1021080021D02A94F7CFF6018681978102C08FEFFC
:102118009FEF2B96E2E1C9C0FC0105906150704029
:102128000110D8F7809590958E0F9F1F0895FC0198
:102138006150704001900110D8F7809590958E0FEE
:102148009F1F08950F931F93CF93DF93FB01238164
:1021580021FD03C08FEF9FEF2CC022FF16C04681E0
:102168005781248135814217530744F4A081B181F6
:102178009D012F5F3F4F208331838C9326813781C8
:102188002F5F3F4F2683378314C08B01EC01FB017F
:102198000084F185E02D0995892BE1F6D801169682
:1021A8008D919C911797019616968D939C931797EE
:1021B800CE01DF91CF911F910F910895FA01AA27BF
:1021C800283051F1203181F1E8946F936E7F6E5F72
:1021D8007F4F8F4F9F4FAF4FB1E03ED0B4E03CD020
:1021E800670F781F891F9A1FA11D680F791F8A1F03
:1021F800911DA11D6A0F711D811D911DA11D20D06A
:1022080009F468943F912AE0269F11243019305D23
:102218003193DEF6CF010895462F4770405D419314
:10222800B3E00FD0C9F7F6CF462F4F70405D4A3361
:1022380018F0495D31FD4052419302D0A9F7EACF29
:10224800B4E0A6959795879577956795BA95C9F758
:1022580000976105710508959B01AC010A2E06944B
:102268005795479537952795BA95C9F7620F731F04
:10227800841F951FA01D08952F923F924F925F9241
:102288006F927F928F929F92AF92BF92CF92DF927E
:10229800EF92FF920F931F93CF93DF93CDB7DEB7E3
:1022A800CA1BDB0BCDBFDEBF09942A883988488852
:1022B8005F846E847D848C849B84AA84B984C8845A
:1022C800DF80EE80FD800C811B81AA81B981CE0F51
:1022D800D11DCDBFDEBFED010895F894FFCF46694B
:1022E80072737420426F6F74204D616E2C20576595
:1022F8006C636F6D653A290D00465720496E666F0D
:10230800203D3E0D004657204D61676963204E759C
:102318006D62657220203A203078253032780D0AB7
:10232800004657204D616A6F722056657273696F57
:102338006E203A203078253032780D0A0046572032
:102348004D696E6F722056657273696F6E203A2000
:102358003078253032780D0A004657205265766964
:1023680073696F6E2020202020203A203078253095
:1023780032780D0A0068656C6C6F0D000000000271
:1023880000000000760600000000FFFFFFFFFFFFCF
:10239800FFFFFFFFFFFFFFFFFFFFFFFFFFFFFFFF45
:1023A800FFFFFFFFFFFFFFFFFFFFFFFFFFFFFFFF35
:1023B800FFFFFFFFFFFFFFFFFFFFFFFFFFFFFFFF25
:1023C800FFFFFFFFFFFFFFFFFFFFFFFFFFFFFFFF15
:102FE800FFFFFFFFFFFFFFFFFFFF61090900FFFF72
:102FF800FFFFFFFFFFFFFFFFFFFF68656C6C6F0DB2
:103008000063686970206964203A2025730D0A00FE
:10301800626F6F74206D616A6F72203A20253032BA
:10302800782C20626F6F74206D696E6F72203A2061
:10303800253032782C20626F6F7420726576203AC2
:1030480020253032780D0A006677206D616A6F722C
:10305800203A20253032782C206677206D696E6FF3
:1030680072203A20253032782C20667720726576D7
:10307800203A20253032780D0A004E692C20466906
:10308800726D7761726520457220446520476F74C0
:10309800204E6F3F0D004669726D7761726520554D
:1030A8007064617465204972616E6169796F21206D
:0C30B8004B6F6E6F2042616B61210D00B8
:1030C40000006838200084059405A805F6052C0640
:1030D4008906A505B305A2058C05D605DD05E4051D
:1030E400EF057405B605C606E806000000020000F8
:0830F40000003D08000000008F
:00000001FF
